:020000040800F2
:1000000000280020E51A0008C9180008CF180008C9
:10001000D5180008DB180008E118000800000000EF
:10002000000000000000000000000000E7180008C9
:10003000F318000800000000FF1800080B19000862
:100040002D1B00082D1B00082D1B00082D1B000870
:100050002D1B00082D1B00082D1B00082D1B000860
:100060002D1B00082D1B00082D1B00082D1B000850
:100070002D1B00082D1B00082D1B00082D1B000840
:100080002D1B00082D1B00082D1B00082D1B000830
:100090002D1B00082D1B00082D1B00082D1B000820
:1000A0002D1B00082D1B00082D1B00082D1B000810
:1000B000191900082D1B0008000000002D1B000866
:1000C0002D1B000800000000000000002D1B000890
:1000D000000000002D1B00082D1B00080000000080
:1000E0002D1B00082D1B00082D1B00080000000020
:1000F0000000000000000000000000000000000000
:0C01000000000000000000005FF808F1A3
:1001100010B5054C237833B9044B13B10448AFF341
:1001200000800123237010BD40000020000000006B
:100130008831000808B5034B1BB103490348AFF3EE
:10014000008008BD00000000440000208831000845
:1001500081F0004102E000BF83F0004330B54FEA78
:1001600041044FEA430594EA050F08BF90EA020FE5
:100170001FBF54EA000C55EA020C7FEA645C7FEA78
:10018000655C00F0E2804FEA5454D4EB5555B8BF9B
:100190006D420CDD2C4480EA020281EA030382EA0C
:1001A000000083EA010180EA020281EA0303362D9E
:1001B00088BF30BD11F0004F4FEA01314FF4801C71
:1001C0004CEA113102D0404261EB410113F0004F83
:1001D0004FEA03334CEA133302D0524263EB43033A
:1001E00094EA050F00F0A780A4F10104D5F1200ED8
:1001F0000DDB02FA0EFC22FA05F2801841F1000133
:1002000003FA0EF2801843FA05F359410EE0A5F106
:1002100020050EF1200E012A03FA0EFC28BF4CF037
:10022000020C43FA05F3C01851EBE37101F00045ED
:1002300007D54FF0000EDCF1000C7EEB00006EEBFA
:100240000101B1F5801F1BD3B1F5001F0CD3490884
:100250005FEA30004FEA3C0C04F101044FEA4452DB
:1002600012F5800F80F09A80BCF1004F08BF5FEA62
:10027000500C50F1000041EB045141EA050130BD42
:100280005FEA4C0C404141EB0101013C28BFB1F554
:10029000801FE9D291F0000F04BF01460020B1FA9F
:1002A00081F308BF2033A3F10B03B3F120020CDA72
:1002B0000C3208DD02F1140CC2F10C0201FA0CF050
:1002C00021FA02F10CE002F11402D8BFC2F1200CB5
:1002D00001FA02F120FA0CFCDCBF41EA0C0190406B
:1002E000E41AA2BF01EB0451294330BD6FEA0404B4
:1002F0001F3C1CDA0C340EDC04F11404C4F120029F
:1003000020FA04F001FA02F340EA030021FA04F3B0
:1003100045EA030130BDC4F10C04C4F1200220FA07
:1003200002F001FA04F340EA0300294630BD21FA45
:1003300004F0294630BD94F0000F83F4801306BF0B
:1003400081F480110134013D4EE77FEA645C18BFFF
:100350007FEA655C29D094EA050F08BF90EA020F96
:1003600005D054EA000C04BF1946104630BD91EA8E
:10037000030F1EBF0021002030BD5FEA545C05D191
:100380004000494128BF41F0004130BD14F58004D0
:100390003CBF01F5801130BD01F0004545F0FE4144
:1003A00041F470014FF0000030BD7FEA645C1ABF79
:1003B000194610467FEA655C1CBF0B46024650EAB0
:1003C000013406BF52EA033591EA030F41F40021DC
:1003D00030BD00BF90F0000F04BF0021704730B562
:1003E0004FF4806404F132044FF000054FF0000137
:1003F00050E700BF90F0000F04BF0021704730B5F8
:100400004FF4806404F1320410F0004548BF4042CC
:100410004FF000013EE700BF42004FEAE2014FEA21
:1004200031014FEA02701FBF12F07F4393F07F4FFC
:1004300081F06051704732F07F4208BF704793F0FF
:100440007F4F04BF41F40021704730B54FF4607412
:1004500001F0004521F000411CE700BF50EA010215
:1004600008BF704730B54FF000050AE050EA0102BE
:1004700008BF704730B511F0004502D5404261EB2E
:1004800041014FF4806404F132045FEA915C3FF46F
:10049000D8AE4FF003025FEADC0C18BF03325FEA0C
:1004A000DC0C18BF033202EBDC02C2F1200300FABD
:1004B00003FC20FA02F001FA03FE40EA0E0021FAE2
:1004C00002F11444BDE600BF70B54FF0FF0C4CF4D0
:1004D000E06C1CEA11541DBF1CEA135594EA0C0F82
:1004E00095EA0C0F00F0DEF82C4481EA030621EABD
:1004F0004C5123EA4C5350EA013518BF52EA0335F8
:1005000041F4801143F4801338D0A0FB02CE4FF0A9
:100510000005E1FB02E506F00042E0FB03E54FF0D9
:100520000006E1FB03569CF0000F18BF4EF0010ED1
:10053000A4F1FF04B6F5007F64F5407404D25FEACD
:100540004E0E6D4146EB060642EAC62141EA555180
:100550004FEAC52040EA5E504FEACE2EB4F1FD0CC2
:1005600088BFBCF5E06F1ED8BEF1004F08BF5FEA40
:10057000500E50F1000041EB045170BD06F00046F2
:1005800046EA010140EA020081EA0301B4EB5C049F
:10059000C2BFD4EB0C0541EA045170BD41F4801197
:1005A0004FF0000E013C00F3AB8014F1360FDEBFBC
:1005B000002001F0004170BDC4F10004203C35DA98
:1005C0000C341BDC04F11404C4F1200500FA05F31B
:1005D00020FA04F001FA05F240EA020001F00042BC
:1005E00021F0004110EBD37021FA04F642EB060132
:1005F0005EEA430E08BF20EAD37070BDC4F10C045C
:10060000C4F1200500FA04F320FA05F001FA04F21F
:1006100040EA020001F0004110EBD37041F100010B
:100620005EEA430E08BF20EAD37070BDC4F1200516
:1006300000FA05F24EEA020E20FA04F301FA05F27E
:1006400043EA020321FA04F001F0004121FA04F226
:1006500020EA020000EBD3705EEA430E08BF20EAF6
:10066000D37070BD94F0000F0FD101F00046400030
:1006700041EB010111F4801F08BF013CF7D041EAB2
:10068000060195F0000F18BF704703F000465200B6
:1006900043EB030313F4801F08BF013DF7D043EA87
:1006A0000603704794EA0C0F0CEA135518BF95EA3D
:1006B0000C0F0CD050EA410618BF52EA4306D1D1C4
:1006C00081EA030101F000414FF0000070BD50EAE3
:1006D000410606BF1046194652EA430619D094EA6D
:1006E0000C0F02D150EA013613D195EA0C0F05D157
:1006F00052EA03361CBF104619460AD181EA0301AB
:1007000001F0004141F0FE4141F470014FF0000062
:1007100070BD41F0FE4141F4780170BD70B54FF0FD
:10072000FF0C4CF4E06C1CEA11541DBF1CEA13557D
:1007300094EA0C0F95EA0C0F00F0A7F8A4EB05045F
:1007400081EA030E52EA03354FEA013100F0888056
:100750004FEA03334FF0805545EA131343EA12631F
:100760004FEA022245EA111545EA10654FEA0026D4
:100770000EF000419D4208BF964244F1FD0404F58D
:10078000407402D25B084FEA3202B61A65EB0305E9
:100790005B084FEA32024FF480104FF4002CB6EBA6
:1007A000020E75EB030E22BFB61A754640EA0C0026
:1007B0005B084FEA3202B6EB020E75EB030E22BF66
:1007C000B61A754640EA5C005B084FEA3202B6EBA7
:1007D000020E75EB030E22BFB61A754640EA9C0066
:1007E0005B084FEA3202B6EB020E75EB030E22BF36
:1007F000B61A754640EADC0055EA060E18D04FEAF4
:10080000051545EA16754FEA06164FEAC30343EA93
:1008100052734FEAC2025FEA1C1CC0D111F4801F60
:100820000BD141EA00014FF000004FF0004CB6E759
:1008300011F4801F04BF01430020B4F1FD0C88BFF8
:10084000BCF5E06F3FF6AFAEB5EB030C04BFB6EB03
:10085000020C5FEA500C50F1000041EB045170BDF6
:100860000EF0004E4EEA113114EB5C04C2BFD4EB23
:100870000C0541EA045170BD41F480114FF0000EA7
:10088000013C90E645EA060E8DE60CEA135594EA23
:100890000C0F08BF95EA0C0F3FF43BAF94EA0C0F26
:1008A0000AD150EA01347FF434AF95EA0C0F7FF49B
:1008B00025AF104619462CE795EA0C0F06D152EAEF
:1008C00003353FF4FDAE1046194622E750EA4106D3
:1008D00018BF52EA43067FF4C5AE50EA41047FF4E4
:1008E0000DAF52EA43057FF4EBAE12E74FEA410247
:1008F00012F5001215D211D56FF47873B3EB625272
:1009000012D94FEAC12343F0004343EA505311F098
:10091000004F23FA02F018BF404270474FF000002A
:10092000704750EA013005D111F0004008BF6FF068
:10093000004070474FF00000704700BF80B584B0A2
:1009400000AF0346FB7197F90730002B25DB97F9C1
:100950000730092B21DC0023FB601AE00122FB6831
:1009600002FA03F399B297F907300E4AD35C1A469C
:10097000FB6842FA03F303F00103002B0CBF0123D1
:100980000023DBB21A46084801F0D5FBFB680133AF
:10099000FB60FB68062BE1DD00E000BF1037BD46C1
:1009A00080BD00BF00000020000C014080B584B075
:1009B00000AF0346FB7197F90730002B25DB97F951
:1009C0000730092B21DC0023FB601AE08022FB6842
:1009D00002FA03F399B297F907300E4AD35C1A462C
:1009E000FB6842FA03F303F00103002B0CBF012361
:1009F0000023DBB21A46084801F09DFBFB68013377
:100A0000FB60FB68062BE1DD00E000BF1037BD4650
:100A100080BD00BF00000020000C014080B586B002
:100A200000AF786039607A68344B83FB0213991009
:100A3000D317C91A0B469B000B445B00D31A7B618A
:100A40007A687B69D31A2D4A82FB03129210DB1756
:100A5000D31A3B613A68294B83FB02139910D317D1
:100A6000C91A0B469B000B445B00D31AFB603A6823
:100A7000FB68D31A214A82FB03129210DB17D31AA8
:100A8000BB601F4B1B68012B02D0022B19D031E039
:100A9000002280211B4801F04EFB01224FF480719F
:100AA000184801F048FB7B695BB21846FFF746FF28
:100AB000FB685BB21846FFF779FF114B02221A6000
:100AC00018E0012280210F4801F035FB00224FF48D
:100AD00080710C4801F02FFB3B695BB21846FFF7B1
:100AE0002DFFBB685BB21846FFF760FF044B012285
:100AF0001A6000BF00BF1837BD4680BD67666666D6
:100B00000C0000200008014080B500AF194B1B68A5
:100B1000012B05D0002B25DD023B022B22D810E053
:100B2000154B1B68012B1FD1144B1B68144A12680C
:100B300011461846FFF772FF4FF4FA7000F0F4FD0B
:100B400012E00D4B1B68012B10D10E4B1B68094A9C
:100B5000126811461846FFF761FF4FF4FA7000F073
:100B6000E3FD03E000BF02E000BF00E000BF00BF04
:100B700080BD00BF14000020DC0000202800002001
:100B80002C0000203000002080B500AF7C4B1B689B
:100B9000013B072B00F2E88001A252F823F000BFCE
:100BA000C10B0008690D0008690D0008690D0008F7
:100BB000ED0B00084B0C0008AD0C0008090D0008F7
:100BC0004FF47A7000F096FD6D4B05221A606D4B64
:100BD0001B686D4A13606D4B1B686D4A13600220E1
:100BE00000F0AAFE032000F0EFFEC6E0694B1B6890
:100BF000012B40F0BB80664B1B68012B16D1604B6C
:100C000006221A60604B1B68013B5F4A1360624B0F
:100C10001B685F4A1360042000F0D6FE5D4B002283
:100C20001A604FF47A7000F065FD9FE0564B1B6828
:100C3000013B554A1360564B1B68013B544A1360F5
:100C40004FF47A7000F056FD90E0524B1B68012B78
:100C500040F08E804C4B1B68012B18D1484B07226B
:100C60001A604A4B1B68484A1360464B1B68484A47
:100C70001360032000F060FE022000F0A5FE454B4B
:100C800000221A604FF47A7000F034FD70E03E4BA1
:100C90001B68013B3C4A13603D4B1B68013B3C4ACF
:100CA00013604FF47A7000F025FD61E0394B1B684A
:100CB000012B5FD1344B1B68012B16D1304B08221E
:100CC0001A60354B1B68304A1360314B1B68013B7F
:100CD0002F4A1360042000F02FFE2E4B00221A60D2
:100CE0004FF47A7000F006FD44E0274B1B68013B8F
:100CF000254A1360264B1B68013B254A13604FF4BD
:100D00007A7000F0F7FC35E0224B1B68012B33D1E1
:100D10001D4B1B68012B18D1194B05221A60194B6A
:100D20001B68194A1360194B1B68194A136002208B
:100D300000F002FE032000F047FE164B00221A606E
:100D40004FF47A7000F0D6FC16E00F4B1B68013BA5
:100D50000D4A13600E4B1B68013B0D4A13604FF4A4
:100D60007A7000F0C7FC07E000BF06E000BF04E0B7
:100D700000BF02E000BF00E000BF00BF80BD00BFB9
:100D8000100000201C00002028000020240000206B
:100D90002C000020D40000202000002080B483B06C
:100DA00000AF7860094A7B6852F82330012B06D1E6
:100DB000064A7B68002142F82310012300E000234B
:100DC00018460C37BD4680BC704700BF7800002035
:100DD00090B583B000AF0023FB7187E0FA79FB790F
:100DE0004749895C474AD154FA79FB794649895C7D
:100DF000434AD154FB79022B1CD0022B25DC002B5B
:100E000002D0012B0BD020E0FC794FF400613F4869
:100E100001F07AF903461A463B4B1A5516E0FC7965
:100E20004FF48051394801F06FF903461A46364BAA
:100E30001A550BE0FC794FF40051344801F064F985
:100E400003461A46304B1A5500E000BFFB792E4A84
:100E5000D25CFB792A49CB5C9A421CD1FB792A4AA5
:100E6000D25CFB792749CB5C9A4214D1FB79284AA2
:100E7000D35C012B09D1FB79234AD35C002B04D12D
:100E8000FB79244A012142F82310FA79FB791E49A3
:100E9000895C1F4AD154FB791D4AD35C002B14D1C5
:100EA000FB791D4A32F81330632B09D8FB791A4AB3
:100EB00032F81320013291B2174A22F8131012E0CF
:100EC000FB79164A0121D1540DE0FB79114A00212A
:100ED00042F82310FB79104A002122F81310FB7905
:100EE0000E4A0021D154FB790133FB71FB79022BAF
:100EF0007FF674AF00BF00BF0C37BD4690BD00BF8A
:100F0000640000206800002060000020000801400C
:100F10005C00002078000020700000206C000020A1
:100F200080B483B000AF0346FB71FB79022B01D97B
:100F3000FF2307E0FB79064AD35C012B0CBF01239A
:100F40000023DBB218460C37BD4680BC704700BF9B
:100F50006C00002080B500AF00F0EAFD00F028F83A
:100F600000F0EEF800F060F80E4801F04DFD4FF48F
:100F70007A7000F0A5FB4FF4FA7000F0D5FB0A4B35
:100F80001B68012B08D14FF48041084801F0EBF8B1
:100F90004FF47A7000F094FB00F048F9FFF7B4FDCD
:100FA000EDE700BF84000020CC000020000C0140D1
:100FB00080B590B000AF07F1180328220021184631
:100FC00002F0DAF83B1D00221A605A609A60DA607B
:100FD0001A610223BB610123BB621023FB62002361
:100FE0007B6307F11803184601F0D6F80346002B7F
:100FF00001D000F015F90F237B600023BB600023B4
:10100000FB6000233B6100237B613B1D00211846F0
:1010100001F044FB0346002B01D000F001F900BFB2
:101020004037BD4680BD0000B0B586B000AF07F1C7
:10103000080300221A605A609A60DA603B46002278
:101040001A605A603A4B4FF080421A60384B41F6B2
:101050003F725A60364B00229A60354B0A22DA60A2
:10106000334B00221A61324B00229A61304801F062
:101070007BFC0346002B01D000F0D2F84FF48053E4
:10108000BB6007F108031946294801F011FE034629
:10109000002B01D000F0C4F800233B6000237B60EC
:1010A0003B461946224801F0D9FF0346002B01D0E8
:1010B00000F0B6F81E4B5B6801331846FFF78AF95B
:1010C00002460B4618A1D1E90001FFF727FB0246B3
:1010D0000B4614461D46164BDB681846FFF77AF997
:1010E00002460B4620462946FFF718FB02460B46F0
:1010F0004FF000000F49FFF711FB02460B46104668
:1011000019464FF000020C4BFFF7DEF902460B4682
:1011100010461946FFF7EAFB0346084A136000BF72
:101120001837BD46B0BD00BF0000000080845E419E
:10113000840000200000F03F00408F401800002095
:1011400080B586B000AF07F1080300221A605A602C
:101150009A60DA60294B9B69284A43F00403936143
:10116000264B9B6903F004037B607B68234B9B69E0
:10117000224A43F008039361204B9B6903F0080364
:101180003B603B68002240F2FE711D4800F0D3FF37
:10119000002247F6FF711B4800F0CDFF40F2FE73BE
:1011A000BB600123FB6000233B6102237B6107F1ED
:1011B00008031946124800F02BFE47F6FF73BB6088
:1011C0000123FB6000233B6102237B6107F10803DD
:1011D00019460C4800F01CFE4FF46053BB6000231E
:1011E000FB6001233B6107F108031946044800F046
:1011F0000FFE00BF1837BD4680BD00BF0010024083
:1012000000080140000C014080B582B000AF78605A
:1012100000F0BEFAFFF7DCFD00BF0837BD4680BD19
:1012200080B400AF72B600BFFEE7000080B500AF2B
:10123000A04B1B68013B032B00F2238201A252F852
:1012400023F000BF551200089B120008FD13000890
:1012500057150008FFF798FC0020FFF79FFD034695
:10126000002B00F01082934B02221A60924B1B68F5
:10127000924A1360904B1B68914A13608D4B1B6818
:10128000904A1360022000F057FB4FF4FA6000F020
:1012900031FAC82000F062FAF5E10020FFF740FEC5
:1012A0000346002B12D0884B1B68012B35D104203C
:1012B00000F042FB7F4B03221A60844B1B687F4A7D
:1012C00013604FF4FA7000F015FA26E07E4B1B68AD
:1012D000012B06D1022000F0BFFB4FF4FA6000F0B2
:1012E00009FA0020FFF75AFD0346002B15D0774B73
:1012F0001B68734A13606F4B1B68724A13606D4B17
:1013000003221A60714B1B686C4A1360042000F0C2
:1013100013FB4FF4FA6000F0EDF90120FFF700FE37
:101320000346002B14D06A4B1B68012B23D1634B5F
:101330001B68632B03DD614B01221A6004E05F4BE5
:101340001B6801335D4A1360C82000F007FA12E001
:101350000120FFF723FD0346002B0CD0574B1B68E1
:10136000632B03DD554B01221A6004E0534B1B68CD
:101370000133524A13600220FFF710FD0346002B91
:1013800000F083814D4B1B684B4A13604F4B1A682A
:10139000504B1B681A44484B1B689A4207DA464B6D
:1013A0001A684A4B1B68D31A4A4A13606DE1474BCF
:1013B0001A68484B1B681A443F4B1B689A4240F31B
:1013C00064813D4B1B68DA0F13445B101A463F4B98
:1013D0001A60394B1B68DA0F13445B101A463D4BF9
:1013E0001A60354B1B6803F00103002B00F04D81A0
:1013F000384B1B680133374A136046E10020FFF782
:101400008FFD0346002B12D02F4B1B68012B35D1CB
:10141000032000F091FA274B04221A602D4B1B6821
:10142000264A13604FF4FA7000F064F926E0264B68
:101430001B68012B06D1042000F00EFB4FF4FA606C
:1014400000F058F90020FFF7A9FC0346002B15D047
:10145000204B1B681A4A1360164B1B68194A13600D
:10146000144B04221A601B4B1B68144A13600320A0
:1014700000F062FA4FF4FA6000F03CF90120FFF747
:101480004FFD0346002B27D0114B1B68012B36D193
:101490000A4B1B68632B03DD084B01221A6004E032
:1014A000064B1B680133054A1360C82000F056F94B
:1014B00025E000BF140000201C00002030000020A8
:1014C000280000202C000020D40000202000002054
:1014D000E4000020240000200120FFF75FFC034609
:1014E000002B0CD06C4B1B68632B03DD6A4B012275
:1014F0001A6004E0684B1B680133674A13600220DE
:10150000FFF74CFC0346002B00F0C180624B1B68C8
:10151000624A1360614B1A68614B1B681A44614B45
:101520001B689A4200F0B3805C4B1A685C4B1B68E6
:1015300013445C4A13605B4B1B68632B40F3A7802A
:10154000584B63221A60574B1A68544B1B68D31AC6
:10155000534A13609BE00020FFF7E2FC0346002B98
:1015600012D0514B1B68012B34D1022000F0E4F95A
:101570004E4B02221A604B4B1B68474A13604FF4D4
:10158000FA7000F0B7F825E0474B1B68012B06D135
:10159000032000F061FA4FF4FA6000F0ABF800208D
:1015A000FFF7FCFB0346002B14D03E4B1B68404A60
:1015B00013603E4B1B683F4A13603C4B01221A608C
:1015C000384B1B68344A1360012000F0B5F93A4BE0
:1015D00001221A600120FFF7A3FC0346002B14D060
:1015E000364B1B68012B54D12B4B1B68632B03DD3F
:1015F000294B01221A6004E0274B1B680133264A5D
:101600001360C82000F0AAF843E00120FFF7C6FBF2
:101610000346002B0CD0204B1B68632B03DD1E4BB5
:1016200001221A6004E01C4B1B6801331A4A136044
:101630000220FFF7B3FB0346002B2AD0164B1B6892
:10164000174A1360154B1A68154B1B681A44154B43
:101650001B689A421DD0114B1A68114B1B6813442A
:10166000104A13600F4B1B68632B12DD0D4B632276
:101670001A600C4B1A680A4B1B68D31A074A13608E
:1016800007E000BF06E000BF04E000BF02E000BFCB
:1016900000E000BF00BF80BD30000020200000201F
:1016A000240000201C000020D40000201400002092
:1016B000280000202C00002010000020E400002062
:1016C00080B483B000AF7860074B1B687A6892FBE8
:1016D000F3F3064A1360064B00221A6000BF0C3772
:1016E000BD4680BC704700BF18000020D00000201D
:1016F000CC00002080B483B000AF7860074B1B683B
:101700007A6892FBF3F3064A1360064B00221A60D4
:1017100000BF0C37BD4680BC704700BF18000020DA
:10172000D8000020D400002080B483B000AF7860DF
:10173000074B1B687A6892FBF3F3064A1360064B6B
:1017400000221A6000BF0C37BD4680BC704700BF46
:1017500018000020E0000020DC00002080B483B0EE
:1017600000AF7860074B1B687A6892FBF3F3064A78
:101770001360064B00221A6000BF0C37BD4680BCC8
:10178000704700BF18000020E8000020E40000209F
:1017900080B400AF214B1B68002B0BDD1F4B1B6877
:1017A000013B1E4A13601D4B1B68002B02DC1C4BC7
:1017B00001221A601B4B1B68002B0BDD194B1B68A9
:1017C000013B184A1360174B1B68002B02DC164BB9
:1017D00001221A60154B1B68002B0BDD134B1B6895
:1017E000013B124A1360114B1B68002B02DC104BAB
:1017F00001221A600F4B1B68002B0BDD0D4B1B6881
:10180000013B0C4A13600B4B1B68002B02DC0A4B9C
:1018100001221A6000BFBD4680BC7047D000002086
:10182000CC000020D8000020D4000020E0000020E0
:10183000DC000020E8000020E400002080B483B039
:1018400000AF0E4B9B690D4A43F0010393610B4BB4
:101850009B6903F001037B607B68084BDB69074AE7
:1018600043F08053D361054BDB6903F080533B6049
:101870003B6800BF0C37BD4680BC7047001002407B
:1018800080B584B000AF78607B681B68B3F1804F8F
:1018900013D10C4BDB690B4A43F00103D361094BB5
:1018A000DB6903F00103FB60FB68002200211C20C0
:1018B00000F077FA1C2000F090FA00BF1037BD4608
:1018C00080BD00BF0010024080B400AFFEE780B4CE
:1018D00000AFFEE780B400AFFEE780B400AFFEE7E4
:1018E00080B400AFFEE780B400AF00BFBD4680BC4F
:1018F000704780B400AF00BFBD4680BC704780B465
:1019000000AF00BFBD4680BC704780B500AF00F09F
:1019100055F900BF80BD000080B500AF024801F05E
:10192000BFF800BF80BD00BF8400002080B400AFBE
:1019300000BFBD4680BC704780B582B000AF786004
:101940007B68013B032B37D801A252F823F000BF7C
:1019500061190008771900088D190008A3190008FB
:1019600000220821174800F0E6FB01220621154855
:1019700000F0E1FB21E000220821124800F0DBFB2F
:10198000012206210F4800F0D6FB16E000220221BA
:101990000C4800F0D0FB01220C210A4800F0CBFBE0
:1019A0000BE000220421074800F0C5FB01220A21B8
:1019B000044800F0C0FB00E000BF00BF0837BD4690
:1019C00080BD00BF0008014080B582B000AF7860E4
:1019D0007B68013B032B37D801A252F823F000BFEC
:1019E000F1190008071A00081D1A0008331A000828
:1019F00000224021174800F09EFB012230211548AB
:101A000000F099FB21E000224021124800F093FBF6
:101A1000012230210F4800F08EFB16E00022102139
:101A20000C4800F088FB012260210A4800F083FB8B
:101A30000BE000222021074800F07DFB012250210D
:101A4000044800F078FB00E000BF00BF0837BD4647
:101A500080BD00BF0008014080B582B000AF786053
:101A60007B68042B18D07B68042B33DC7B68022B4B
:101A700003D07B68032B1ED02CE0012204211848E0
:101A800000F059FB01220221154800F054FB082107
:101A9000134800F068FB1EE001220821104800F006
:101AA0004AFB012202210E4800F045FB04210C48AC
:101AB00000F059FB0FE001220421094800F03BFB34
:101AC00001220821064800F036FB0221044800F0FC
:101AD0004AFB00E000BF00BF0837BD4680BD00BF25
:101AE000000801400C480D490D4A002302E0D4587B
:101AF000C4500433C4188C42F9D30A4A0A4C002358
:101B000001E013600432A242FBD3FFF70FFF01F0A4
:101B10000FFBFFF71FFA7047000000204000002075
:101B2000C831000840000020F0000020FEE700005F
:101B300080B500AF084B1B68074A43F010031360E1
:101B4000032000F023F90F2000F008F8FFF776FEDD
:101B50000023184680BD00BF0020024080B582B03F
:101B600000AF7860124B1A68124B1B7819464FF47D
:101B70007A73B3FBF1F3B2FBF3F3184600F03BF9D1
:101B80000346002B01D001230EE07B680F2B0AD8FF
:101B9000002279684FF0FF3000F003F9064A7B68B5
:101BA0001360002300E0012318460837BD4680BDBE
:101BB000340000203C0000203800002080B400AF3A
:101BC000054B1B781A46054B1B681344034A1360E8
:101BD00000BFBD4680BC70473C000020EC000020E8
:101BE00080B400AF024B1B681846BD4680BC7047EE
:101BF000EC00002080B485B000AF78607B6803F013
:101C00000703FB600C4BDB68BB60BA684FF6FF0351
:101C10001340BB60FB681A02BB68134343F0BF6309
:101C200043F40033BB60044ABB68D36000BF143781
:101C3000BD4680BC704700BF00ED00E080B400AF3F
:101C4000044BDB681B0A03F007031846BD4680BC43
:101C5000704700BF00ED00E080B483B000AF0346E2
:101C6000FB7197F90730002B0BDBFB7903F01F02A8
:101C7000064997F907305B09012000FA02F241F8A2
:101C8000232000BF0C37BD4680BC704700E100E058
:101C900080B483B000AF03463960FB7197F9073019
:101CA000002B0ADB3B68DAB20C4997F907301201C6
:101CB000D2B20B4483F800230AE03B68DAB2084949
:101CC000FB7903F00F03043B1201D2B20B441A76E6
:101CD00000BF0C37BD4680BC704700BF00E100E08C
:101CE00000ED00E080B489B000AFF860B9607A60C0
:101CF000FB6803F00703FB61FB69C3F10703042BD7
:101D000028BF0423BB61FB690433062B02D9FB699E
:101D1000033B00E000237B614FF0FF32BB6902FA16
:101D200003F3DA43BB681A407B699A404FF0FF31F6
:101D30007B6901FA03F3D9437B680B4013431846D0
:101D40002437BD4680BC704780B582B000AF786054
:101D50007B68013BB3F1807F01D301230FE00A4A86
:101D60007B68013B53600F214FF0FF30FFF790FF7E
:101D7000054B00229A60044B07221A600023184684
:101D80000837BD4680BD00BF10E000E080B582B0DE
:101D900000AF78607868FFF72DFF00BF0837BD46B9
:101DA00080BD80B586B000AF0346B9607A60FB7332
:101DB00000237B61FFF742FF78617A68B968786930
:101DC000FFF790FF024697F90F3011461846FFF7CC
:101DD0005FFF00BF1837BD4680BD80B582B000AF41
:101DE0000346FB7197F907301846FFF735FF00BF30
:101DF0000837BD4680BD80B582B000AF7860786896
:101E0000FFF7A2FF034618460837BD4680BD000015
:101E100080B48BB000AF7860396000237B62002310
:101E20003B6261E101227B6A02FA03F3FB613B68DA
:101E30001B68FA691340BB61BA69FB699A4240F0BA
:101E400050813B685B68974A93425ED0954A9342C3
:101E500075D8954A934258D0934A93426FD8934A83
:101E6000934252D0914A934269D8914A93424CD0BE
:101E70008F4A934263D88F4A934246D08D4A934209
:101E80005DD8122B2AD8122B59D801A252F823F070
:101E90000B1F0008E51E0008F71E0008391F000888
:101EA0003F1F00083F1F00083F1F00083F1F00089A
:101EB0003F1F00083F1F00083F1F00083F1F00088A
:101EC0003F1F00083F1F00083F1F00083F1F00087A
:101ED0003F1F0008ED1E0008011F0008764A9342CC
:101EE00013D02CE03B68DB683B6229E03B68DB6891
:101EF00004333B6224E03B68DB6808333B621FE04D
:101F00003B68DB680C333B621AE03B689B68002B44
:101F100002D104233B6213E03B689B68012B05D18F
:101F200008233B627B68FA691A6109E008233B6277
:101F30007B68FA695A6103E000233B6200E000BF5E
:101F4000BB69FF2B01D87B6801E07B6804337B61B0
:101F5000BB69FF2B02D87B6A9B0002E07B6A083BCF
:101F60009B003B617B691A680F213B6901FA03F30F
:101F7000DB431A40396A3B6901FA03F31A437B6970
:101F80001A603B685B6803F08053002B00F0A98067
:101F90004A4B9B69494A43F001039361474B9B6954
:101FA00003F00103BB60BB68454A7B6A9B080233B0
:101FB00052F82330FB607B6A03F003039B000F227F
:101FC00002FA03F3DB43FA681340FB607B683D4A87
:101FD00093420DD07B683C4A934207D07B683B4AD2
:101FE000934201D1022304E0032302E0012300E035
:101FF00000237A6A02F0030292009340FA681343C6
:10200000FB602F497B6A9B080233FA6841F8232062
:102010003B685B6803F48033002B06D02C4B1A68B6
:102020002B49BB6913430B6006E0294B1A68BB6957
:10203000DB43274913400B603B685B6803F40033C4
:10204000002B06D0224B5A682149BB6913434B60D1
:1020500006E01F4B5A68BB69DB431D4913404B60C8
:102060003B685B6803F48013002B06D0184B9A681A
:102070001749BB6913438B6006E0154B9A68BB692F
:10208000DB43134913408B603B685B6803F4001328
:10209000002B1FD00E4BDA680D49BB691343CB6090
:1020A0001FE000BF000032100000311000002210BD
:1020B000000021100000121000001110001002405A
:1020C0000000014000080140000C014000100140E8
:1020D000000401400B4BDA68BB69DB43094913403C
:1020E000CB607B6A01337B623B681A687B6A22FAA9
:1020F00003F3002B7FF496AE00BF00BF2C37BD4624
:1021000080BC70470004014080B485B000AF7860A7
:102110000B467B807B689A687B881340002B02D03B
:102120000123FB7301E00023FB73FB7B184614378C
:10213000BD4680BC704780B483B000AF78600B466A
:102140007B8013467B707B78002B03D07A887B687A
:102150001A6103E07B881A047B681A6100BF0C37A0
:10216000BD4680BC704780B485B000AF78600B4638
:102170007B807B68DB68FB607A88FB6813401A040D
:10218000FB68D9437B880B401A437B681A6100BF08
:102190001437BD4680BC704780B586B000AF78600C
:1021A0007B68002B01D1012372E27B681B6803F07E
:1021B0000103002B00F08780924B5B6803F00C0357
:1021C000042B0CD08F4B5B6803F00C03082B12D14F
:1021D0008C4B5B6803F48033B3F5803F0BD1894BA4
:1021E0001B6803F40033002B6CD07B685B68002B0A
:1021F00068D101234CE27B685B68B3F5803F06D170
:10220000804B1B687F4A43F4803313602EE07B6869
:102210005B68002B0CD17B4B1B687A4A23F480331C
:102220001360784B1B68774A23F4802313601DE00A
:102230007B685B68B3F5A02F0CD1724B1B68714AA9
:1022400043F4802313606F4B1B686E4A43F4803362
:1022500013600BE06B4B1B686A4A23F480331360F6
:10226000684B1B68674A23F4802313607B685B68B4
:10227000002B13D0FFF7B4FC386108E0FFF7B0FC87
:1022800002463B69D31A642B01D9032300E25D4B5C
:102290001B6803F40033002BF0D014E0FFF7A0FC20
:1022A000386108E0FFF79CFC02463B69D31A642BB7
:1022B00001D90323ECE1534B1B6803F40033002BDB
:1022C000F0D100E000BF7B681B6803F00203002B25
:1022D00063D04C4B5B6803F00C03002B0BD0494BD5
:1022E0005B6803F00C03082B1CD1464B5B6803F4BE
:1022F0008033002B16D1434B1B6803F00203002BE5
:1023000005D07B681B69012B01D00123C0E13D4B47
:102310001B6823F0F8027B685B69DB0039491343D3
:102320000B603AE07B681B69002B20D0364B012202
:102330001A60FFF755FC386108E0FFF751FC0246D0
:102340003B69D31A022B01D90323A1E12D4B1B6852
:1023500003F00203002BF0D02A4B1B6823F0F80295
:102360007B685B69DB00274913430B6015E0264B54
:1023700000221A60FFF734FC386108E0FFF730FCF8
:1023800002463B69D31A022B01D9032380E11D4B7E
:102390001B6803F00203002BF0D17B681B6803F07D
:1023A0000803002B3AD07B689B69002B19D0174B90
:1023B00001221A60FFF714FC386108E0FFF710FCF7
:1023C00002463B69D31A022B01D9032360E10D4B6E
:1023D0005B6A03F00203002BF0D0012000F0A6FAA4
:1023E0001CE00A4B00221A60FFF7FAFB38610FE08D
:1023F000FFF7F6FB02463B69D31A022B08D90323E9
:1024000046E100BF00100240000042428004424208
:10241000924B5B6A03F00203002BE9D17B681B68D7
:1024200003F00403002B00F0A6800023FB758B4B08
:10243000DB6903F08053002B0DD1884BDB69874AA1
:1024400043F08053D361854BDB6903F08053BB605D
:10245000BB680123FB75824B1B6803F48073002B60
:1024600018D17F4B1B687E4A43F480731360FFF7DB
:10247000B7FB386108E0FFF7B3FB02463B69D31AAC
:10248000642B01D9032303E1754B1B6803F48073AC
:10249000002BF0D07B68DB68012B06D16F4B1B6AE9
:1024A0006E4A43F0010313622DE07B68DB68002B6A
:1024B0000CD16A4B1B6A694A23F001031362674B14
:1024C0001B6A664A23F0040313621CE07B68DB6826
:1024D000052B0CD1614B1B6A604A43F00403136265
:1024E0005E4B1B6A5D4A43F0010313620BE05B4BDA
:1024F0001B6A5A4A23F001031362584B1B6A574A5E
:1025000023F0040313627B68DB68002B15D0FFF710
:1025100067FB38610AE0FFF763FB02463B69D31AA9
:1025200041F28832934201D90323B1E04B4B1B6A3D
:1025300003F00203002BEED014E0FFF751FB3861EB
:102540000AE0FFF74DFB02463B69D31A41F288329D
:10255000934201D903239BE0404B1B6A03F0020323
:10256000002BEED1FB7D012B05D13C4BDB693B4AB7
:1025700023F08053D3617B68DB69002B00F08780F8
:10258000364B5B6803F00C03082B61D07B68DB697A
:10259000022B46D1334B00221A60FFF721FB386132
:1025A00008E0FFF71DFB02463B69D31A022B01D955
:1025B00003236DE0294B1B6803F00073002BF0D15F
:1025C0007B681B6AB3F5803F08D1244B5B6823F41A
:1025D00000327B689B68214913434B601F4B5B684B
:1025E00023F474127B68196A7B685B6A0B431B498E
:1025F00013434B601B4B01221A60FFF7F1FA38615D
:1026000008E0FFF7EDFA02463B69D31A022B01D925
:1026100003233DE0114B1B6803F00073002BF0D047
:1026200035E0104B00221A60FFF7DAFA386108E053
:10263000FFF7D6FA02463B69D31A022B01D90323CE
:1026400026E0064B1B6803F00073002BF0D11EE060
:102650007B68DB69012B07D1012319E000100240E0
:1026600000700040600042420B4B5B68FB60FB68FF
:1026700003F480327B681B6A9A4206D1FB6803F43C
:1026800070127B685B6A9A4201D0012300E000234C
:1026900018461837BD4680BD0010024080B584B092
:1026A00000AF786039607B68002B01D10123D0E056
:1026B0006A4B1B6803F007033A689A4210D9674BCC
:1026C0001B6823F0070265493B6813430B60634BAB
:1026D0001B6803F007033A689A4201D00123B8E06F
:1026E0007B681B6803F00203002B20D07B681B680B
:1026F00003F00403002B05D0594B5B68584A43F4A0
:10270000E06353607B681B6803F00803002B05D06F
:10271000534B5B68524A43F460535360504B5B68C1
:1027200023F0F0027B689B684D4913434B607B6844
:102730001B6803F00103002B40D07B685B68012B12
:1027400007D1474B1B6803F40033002B15D101233D
:102750007FE07B685B68022B07D1414B1B6803F06D
:102760000073002B09D1012373E03D4B1B6803F07C
:102770000203002B01D101236BE0394B5B6823F08E
:1027800003027B685B68364913434B60FFF728FA06
:10279000F8600AE0FFF724FA0246FB68D31A41F218
:1027A0008832934201D9032353E02D4B5B6803F039
:1027B0000C027B685B689B009A42EBD1274B1B683D
:1027C00003F007033A689A4210D2244B1B6823F0A7
:1027D000070222493B6813430B60204B1B6803F040
:1027E00007033A689A4201D0012332E07B681B68F4
:1027F00003F00403002B08D0194B5B6823F4E0625C
:102800007B68DB68164913434B607B681B6803F0E9
:102810000803002B09D0124B5B6823F460527B68DD
:102820001B69DB000E4913434B6000F021F80246A0
:102830000B4B5B681B0903F00F030A49CB5C22FAC0
:1028400003F3094A1360094B1B681846FFF786F922
:10285000002318461037BD4680BD00BF002002404F
:1028600000100240B0310008340000203800002081
:1028700090B48AB000AF294B3C1D0FCB84E80F0009
:1028800040F201233B800023FB610023BB61002356
:102890007B6200237B6100233B62214B5B68FB6111
:1028A000FB6903F00C03042B02D0082B03D02BE0B0
:1028B0001C4B3B622BE0FB699B0C03F00F0328339E
:1028C0003B4413F8243C7B61FB6903F48033002B09
:1028D00012D0134B5B685B0C03F0010328333B44BD
:1028E00013F8283CBB617B690E4A03FB02F2BB690B
:1028F000B2FBF3F37B6204E07B690B4A02FB03F358
:102900007B627B6A3B6202E0064B3B6200BF3B6A34
:1029100018462837BD4690BC704700BFA03100085C
:102920000010024000127A0000093D0080B485B01A
:1029300000AF78600A4B1B680A4AA2FB03235B0ABC
:102940007A6802FB03F3FB6000BFFB685A1EFA6063
:10295000002BF9D100BF00BF1437BD4680BC7047C3
:1029600034000020D34D621080B582B000AF786093
:102970007B68002B01D1012341E07B6893F83D3057
:10298000DBB2002B06D17B68002283F83C207868FC
:10299000FEF776FF7B68022283F83D207B681A6889
:1029A0007B6804331946104600F06AFA7B680122FE
:1029B00083F846207B68012283F83E207B68012251
:1029C00083F83F207B68012283F840207B68012246
:1029D00083F841207B68012283F842207B68012232
:1029E00083F843207B68012283F844207B6801221E
:1029F00083F845207B68012283F83D200023184698
:102A00000837BD4680BD000080B485B000AF786057
:102A10007B6893F83D30DBB2012B01D0012335E018
:102A20007B68022283F83D207B681B68DA687B683C
:102A30001B6842F00102DA607B681B68164A934209
:102A400009D07B681B68B3F1804F04D07B681B689A
:102A5000124A934211D17B681B689B6803F00703FD
:102A6000FB60FB68062B10D07B681B681A687B68CC
:102A70001B6842F001021A6007E07B681B681A6855
:102A80007B681B6842F001021A6000231846143765
:102A9000BD4680BC704700BF002C014000040040D0
:102AA00080B582B000AF78607B681B681B6903F05B
:102AB0000203022B22D17B681B68DB6803F0020350
:102AC000022B1BD17B681B686FF002021A617B68C6
:102AD00001221A777B681B689B6903F00303002BB4
:102AE00003D0786800F0B1F905E0786800F0A4F947
:102AF000786800F0B3F97B6800221A777B681B685E
:102B00001B6903F00403042B22D17B681B68DB687C
:102B100003F00403042B1BD17B681B686FF00402D5
:102B20001A617B6802221A777B681B689B6903F431
:102B30004073002B03D0786800F087F905E07868CF
:102B400000F07AF9786800F089F97B6800221A773A
:102B50007B681B681B6903F00803082B22D17B6884
:102B60001B68DB6803F00803082B1BD17B681B681C
:102B70006FF008021A617B6804221A777B681B6871
:102B8000DB6903F00303002B03D0786800F05DF9E4
:102B900005E0786800F050F9786800F05FF97B682C
:102BA00000221A777B681B681B6903F01003102B47
:102BB00022D17B681B68DB6803F01003102B1BD14C
:102BC0007B681B686FF010021A617B6808221A7715
:102BD0007B681B68DB6903F44073002B03D07868C3
:102BE00000F033F905E0786800F026F9786800F025
:102BF00035F97B6800221A777B681B681B6903F034
:102C00000103012B0ED17B681B68DB6803F0010315
:102C1000012B07D17B681B686FF001021A6178688D
:102C2000FEF7F2FA7B681B681B6903F08003802BB8
:102C30000ED17B681B68DB6803F08003802B07D113
:102C40007B681B686FF080021A61786800F067FA91
:102C50007B681B681B6903F04003402B0ED17B6827
:102C60001B68DB6803F04003402B07D17B681B68BF
:102C70006FF040021A61786800F0F9F87B681B6811
:102C80001B6903F02003202B0ED17B681B68DB68D7
:102C900003F02003202B07D17B681B686FF0200214
:102CA0001A61786800F032FA00BF0837BD4680BD6F
:102CB00080B584B000AF786039607B6893F83C30B1
:102CC000012B01D10223B3E07B68012283F83C2071
:102CD0007B68022283F83D207B681B689B68FB6051
:102CE000FB6823F07703FB60FB6823F47F43FB6002
:102CF0007B681B68FA689A603B681B68B3F5005FE5
:102D00003ED0B3F5005F00F28780B3F5805F00F03E
:102D10008580B3F5805F7FD8702B1AD0702B7BD85D
:102D2000602B50D0602B77D8502B3CD0502B73D8D1
:102D3000402B58D0402B6FD8302B64D0302B6BD821
:102D4000202B60D0202B67D8002B5CD0102B5AD0C2
:102D500062E07B6818683B6899683B685A683B6822
:102D6000DB6800F05CF97B681B689B68FB60FB68B4
:102D700043F07703FB607B681B68FA689A604EE05B
:102D80007B6818683B6899683B685A683B68DB68F1
:102D900000F045F97B681B689A687B681B6842F401
:102DA00080429A603BE07B6818683B6859683B68E2
:102DB000DB681A4600F0BCF87B681B685021184697
:102DC00000F013F92BE07B6818683B6859683B6892
:102DD000DB681A4600F0DAF87B681B686021184649
:102DE00000F003F91BE07B6818683B6859683B6892
:102DF000DB681A4600F09CF87B681B684021184687
:102E000000F0F3F80BE07B681A683B681B68194612
:102E1000104600F0EAF802E000BF00E000BF7B6867
:102E2000012283F83D207B68002283F83C200023A8
:102E300018461037BD4680BD80B483B000AF7860BF
:102E400000BF0C37BD4680BC704780B483B000AF74
:102E5000786000BF0C37BD4680BC704780B483B03B
:102E600000AF786000BF0C37BD4680BC704780B4AF
:102E700083B000AF786000BF0C37BD4680BC7047A0
:102E800080B485B000AF786039607B681B68FB60F8
:102E90007B68254A934207D07B68B3F1804F03D00B
:102EA0007B68224A934208D1FB6823F07003FB60E1
:102EB0003B685B68FA681343FB607B681A4A93427D
:102EC00007D07B68B3F1804F03D07B68174A9342E9
:102ED00008D1FB6823F44073FB603B68DB68FA6849
:102EE0001343FB60FB6823F080023B685B6913437C
:102EF000FB607B68FA681A603B689A687B68DA62F4
:102F00003B681A687B689A627B68074A934203D1E0
:102F10003B681A697B681A637B6801225A6100BFAB
:102F20001437BD4680BC7047002C014000040040AF
:102F300080B487B000AFF860B9607A60FB681B6A44
:102F40007B61FB681B6A23F00102FB681A62FB6865
:102F50009B693B613B6923F0F0033B617B681B018C
:102F60003A6913433B617B6923F00A037B617A6909
:102F7000BB6813437B61FB683A699A61FB687A69B5
:102F80001A6200BF1C37BD4680BC704780B487B052
:102F900000AFF860B9607A60FB681B6A23F010022A
:102FA000FB681A62FB689B697B61FB681B6A3B617B
:102FB0007B6923F470437B617B681B037A6913434D
:102FC0007B613B6923F0A0033B61BB681B013A694D
:102FD00013433B61FB687A699A61FB683A691A623C
:102FE00000BF1C37BD4680BC704780B485B000AFC1
:102FF000786039607B689B68FB60FB6823F0700336
:10300000FB603A68FB68134343F00703FB607B688F
:10301000FA689A6000BF1437BD4680BC704780B420
:1030200087B000AFF860B9607A603B60FB689B686E
:103030007B617B6923F47F437B613B681A027B6879
:103040001A43BB6813437A6913437B61FB687A694F
:103050009A6000BF1C37BD4680BC704780B485B005
:1030600000AF786039607B6893F83C30012B01D168
:10307000022341E07B68012283F83C207B68022226
:1030800083F83D207B681B685B68FB607B681B687E
:103090009B68BB60FB6823F07003FB603B681B68A8
:1030A000FA681343FB607B681B68FA685A607B68A8
:1030B0001B68144A934209D07B681B68B3F1804FA8
:1030C00004D07B681B68104A93420CD1BB6823F084
:1030D0008003BB603B685B68BA681343BB607B6876
:1030E0001B68BA689A607B68012283F83D207B6880
:1030F000002283F83C20002318461437BD4680BCCC
:10310000704700BF002C01400004004080B483B031
:1031100000AF786000BF0C37BD4680BC704780B4FC
:1031200083B000AF786000BF0C37BD4680BC7047ED
:1031300070B500260C4D0D4C641BA410A64209D19D
:1031400000F022F800260A4D0A4C641BA410A64287
:1031500005D170BD55F8043B98470136EEE755F8A8
:10316000043B98470136F2E7C0310008C03100083F
:10317000C0310008C431000803460244934200D124
:10318000704703F8011BF9E7F8B500BFF8BC08BCAD
:103190009E467047F8B500BFF8BC08BC9E46704715
:1031A00002030405060708090A0B0C0D0E0F101088
:1031B00000000000000000000102030406070809E7
:0431C00035010008CD
:0431C40011010008ED
:1031C8003F065B4F666D7D077F6F000001000000C2
:1031D80001000000010000000100000005000000DF
:1031E80002000000030000000500000001000000CC
:1031F800050000000024F400100000000100000099
:0400000508001AE5F0
:00000001FF
